{
  "contractName": "idGenerator",
  "abi": [
    {
      "anonymous": false,
      "inputs": [
        {
          "indexed": true,
          "internalType": "uint256",
          "name": "newId",
          "type": "uint256"
        }
      ],
      "name": "IdSet",
      "type": "event"
    },
    {
      "inputs": [],
      "name": "id",
      "outputs": [
        {
          "internalType": "uint256",
          "name": "",
          "type": "uint256"
        }
      ],
      "stateMutability": "view",
      "type": "function",
      "constant": true
    },
    {
      "inputs": [
        {
          "internalType": "uint256",
          "name": "x",
          "type": "uint256"
        }
      ],
      "name": "setId",
      "outputs": [],
      "stateMutability": "nonpayable",
      "type": "function"
    }
  ],
  "bytecode": "0x608060405234801561001057600080fd5b50610246806100206000396000f3fe608060405234801561001057600080fd5b50600436106100365760003560e01c8063af640d0f1461003b578063d0e0ba9514610059575b600080fd5b610043610075565b60405161005091906100f2565b60405180910390f35b610073600480360381019061006e919061013e565b61007b565b005b60005481565b608160e76103e88361008d919061019a565b610097919061019a565b6100a191906101dc565b6000819055506000547fc72e55068a99063a2c847c0b87d2808f29d1935171e54ffa3a479533b4046b7460405160405180910390a250565b6000819050919050565b6100ec816100d9565b82525050565b600060208201905061010760008301846100e3565b92915050565b600080fd5b61011b816100d9565b811461012657600080fd5b50565b60008135905061013881610112565b92915050565b6000602082840312156101545761015361010d565b5b600061016284828501610129565b91505092915050565b7f4e487b7100000000000000000000000000000000000000000000000000000000600052601160045260246000fd5b60006101a5826100d9565b91506101b0836100d9565b92508282026101be816100d9565b915082820484148315176101d5576101d461016b565b5b5092915050565b60006101e7826100d9565b91506101f2836100d9565b925082820190508082111561020a5761020961016b565b5b9291505056fea2646970667358221220732bfd98250f911f8d3e7f5d586af12fb3fda449cbf5d0cdda01452f70b1ee2e64736f6c63430008110033",
  "immutableReferences": {},
  "source": "// SPDX-License-Identifier: MIT\r\npragma solidity >=0.4.22 <0.9.0;\r\n\r\ncontract idGenerator {\r\n    uint public id;\r\n\r\n    // Event to emit when the id is set\r\n    event IdSet(uint indexed newId);\r\n\r\n    function setId(uint x) public {\r\n        id = x * 1000 * 231 + 129;\r\n\r\n        // Emit event after id is set\r\n        emit IdSet(id);\r\n    }\r\n}\r\n",
  "sourcePath": "C:\\Users\\pooja_e0krd3t\\finalticket\\ticket-system-using-blockchain\\contracts\\idGenerator.sol",
  "compiler": {
    "name": "solc",
    "version": "0.8.17+commit.8df45f5f.Emscripten.clang"
  },
  "schemaVersion": "3.4.16",
  "updatedAt": "2024-10-19T06:06:08.566Z",
  "networkType": "ethereum",
  "devdoc": {
    "kind": "dev",
    "methods": {},
    "version": 1
  },
  "userdoc": {
    "kind": "user",
    "methods": {},
    "version": 1
  }
}